{
  "transactions": [
    {
      "hash": "0x44e6a3ab91a4076b6752c9b3928a4598cd36ab2fa15026b0f910ca8806154b89",
      "transactionType": "CALL",
      "contractName": null,
      "contractAddress": "0x40d8438d2e20f1ff21780aef6d55422f341ef1a4",
      "function": "approve(address,uint256)",
      "arguments": [
        "0x2a7bD8f2517ee51bc79C9EE282cD6451412f4080",
        "115792089237316195423570985008687907853269984665640564039457584007913129639935"
      ],
      "transaction": {
        "from": "0x0cd73a4e3d34d5488bc4e547fecedac86305db9d",
        "to": "0x40d8438d2e20f1ff21780aef6d55422f341ef1a4",
        "gas": "0xeccc",
        "value": "0x0",
        "input": "0x095ea7b30000000000000000000000002a7bd8f2517ee51bc79c9ee282cd6451412f4080ffffffffffffffffffffffffffffffffffffffffffffffffffffffffffffffff",
        "nonce": "0x19",
        "chainId": "0x66eee"
      },
      "additionalContracts": [],
      "isFixedGasLimit": false
    },
    {
      "hash": "0xacb77d00280936355e99b578f656e33224e909f88be86e2828e6a6be6c839b20",
      "transactionType": "CALL",
      "contractName": null,
      "contractAddress": "0xf79f5d4387562ba8536568c36c26daf272b21071",
      "function": "approve(address,uint256)",
      "arguments": [
        "0x2a7bD8f2517ee51bc79C9EE282cD6451412f4080",
        "115792089237316195423570985008687907853269984665640564039457584007913129639935"
      ],
      "transaction": {
        "from": "0x0cd73a4e3d34d5488bc4e547fecedac86305db9d",
        "to": "0xf79f5d4387562ba8536568c36c26daf272b21071",
        "gas": "0xeccc",
        "value": "0x0",
        "input": "0x095ea7b30000000000000000000000002a7bd8f2517ee51bc79c9ee282cd6451412f4080ffffffffffffffffffffffffffffffffffffffffffffffffffffffffffffffff",
        "nonce": "0x1a",
        "chainId": "0x66eee"
      },
      "additionalContracts": [],
      "isFixedGasLimit": false
    },
    {
      "hash": "0x286a4c0bb352503ce9d49b1c695062535b63dcaa453ee27e7c601720555dc2f7",
      "transactionType": "CALL",
      "contractName": null,
      "contractAddress": "0x2a7bd8f2517ee51bc79c9ee282cd6451412f4080",
      "function": "deposit((address,address,uint24,int24,address),address,uint256)",
      "arguments": [
        "(0x40d8438d2E20F1FF21780Aef6d55422F341ef1a4, 0xf79f5D4387562Ba8536568C36C26Daf272B21071, 3000, 60, 0x2a7bD8f2517ee51bc79C9EE282cD6451412f4080)",
        "0x40d8438d2E20F1FF21780Aef6d55422F341ef1a4",
        "100000000"
      ],
      "transaction": {
        "from": "0x0cd73a4e3d34d5488bc4e547fecedac86305db9d",
        "to": "0x2a7bd8f2517ee51bc79c9ee282cd6451412f4080",
        "gas": "0x267384",
        "value": "0x0",
        "input": "0xe8d535e200000000000000000000000040d8438d2e20f1ff21780aef6d55422f341ef1a4000000000000000000000000f79f5d4387562ba8536568c36c26daf272b210710000000000000000000000000000000000000000000000000000000000000bb8000000000000000000000000000000000000000000000000000000000000003c0000000000000000000000002a7bd8f2517ee51bc79c9ee282cd6451412f408000000000000000000000000040d8438d2e20f1ff21780aef6d55422f341ef1a40000000000000000000000000000000000000000000000000000000005f5e100",
        "nonce": "0x1b",
        "chainId": "0x66eee"
      },
      "additionalContracts": [
        {
          "transactionType": "CREATE",
          "contractName": "HybridFHERC20",
          "address": "0x72975fd7a7ed99691b4408ddc98bbb617155e237",
          "initCode": "0x60a080604052346101ee57611dfa803803809161001c82856103ce565b83398101906060818303126101ee5780516001600160401b0381116101ee57826100479183016103f1565b60208201519092906001600160401b0381116101ee5760409161006b9184016103f1565b91015160ff81168091036101ee5782516001600160401b0381116102df57600354600181811c911680156103c4575b60208210146102c157601f8111610361575b506020601f82116001146102fe57819293945f926102f3575b50508160011b915f199060031b1c1916176003555b81516001600160401b0381116102df57600454600181811c911680156102d5575b60208210146102c157601f811161025e575b50602092601f82116001146101fd57928192935f926101f2575b50508160011b915f199060031b1c1916176004555b610144610446565b60075561014f610446565b8060805273ea30c4b8b44078bbf8a6ef5b9f1ec1626c7848d93b156101ee5760405190631974142760e21b825260048201523060248201525f816044818373ea30c4b8b44078bbf8a6ef5b9f1ec1626c7848d95af180156101e3576101d3575b5060ff19600554161760055560405161186e908161058c8239608051816110ec0152f35b5f6101dd916103ce565b5f6101af565b6040513d5f823e3d90fd5b5f80fd5b015190505f80610127565b601f1982169360045f52805f20915f5b868110610246575083600195961061022e575b505050811b0160045561013c565b01515f1960f88460031b161c191690555f8080610220565b9192602060018192868501518155019401920161020d565b60045f527f8a35acfbc15ff81a39ae7d344fd709f28e8600b4aa8c65c6b64bfe7fe36bd19b601f830160051c810191602084106102b7575b601f0160051c01905b8181106102ac575061010d565b5f815560010161029f565b9091508190610296565b634e487b7160e01b5f52602260045260245ffd5b90607f16906100fb565b634e487b7160e01b5f52604160045260245ffd5b015190505f806100c5565b601f1982169060035f52805f20915f5b81811061034957509583600195969710610331575b505050811b016003556100da565b01515f1960f88460031b161c191690555f8080610323565b9192602060018192868b01518155019401920161030e565b60035f527fc2575a0e9e593c00f959f8c92f12db2869c3395a3b0502d05e2516446f71f85b601f830160051c810191602084106103ba575b601f0160051c01905b8181106103af57506100ac565b5f81556001016103a2565b9091508190610399565b90607f169061009a565b601f909101601f19168101906001600160401b038211908210176102df57604052565b81601f820112156101ee578051906001600160401b0382116102df5760405192610425601f8401601f1916602001856103ce565b828452602083830101116101ee57815f9260208093018386015e8301015290565b602060405161045582826103ce565b5f81525f3681376040519061046b6080836103ce565b6003825260603684840137815115610544575f838301528151600110156105445760066040830152815160021015610544576104dc83915f60608501526104ee6040519485938493631888debd60e01b855260066004860152601a6024860152608060448601526084850190610558565b83810360031901606485015290610558565b03815f73ea30c4b8b44078bbf8a6ef5b9f1ec1626c7848d95af19182156101e3575f9261051a57505090565b90809250813d831161053d575b61053181836103ce565b810103126101ee575190565b503d610527565b634e487b7160e01b5f52603260045260245ffd5b90602080835192838152019201905f5b8181106105755750505090565b825184526020938401939092019160010161056856fe60806040526004361015610011575f80fd5b5f3560e01c8063021ac541146109b257806306fdde03146108f7578063095ea7b3146108755780630df79c12146107905780631311aca11461075857806318160ddd1461073b578063211faa2a1461071657806323b872dd146106375780632c4405a4146105f2578063313ce567146105d257806340c10f19146105ad5780634465266e146105915780635b6c6b3e1461057757806366d4154e1461055d5780636b385161146105365780636e76c4161461050057806370a08231146104c957806395d89b41146103c15780639dc29fac1461039a578063a9059cbb14610369578063af575a001461033a578063c395d81a14610315578063c4224c19146102ed578063ccd8e8af146102d0578063d995159314610287578063dd62ed3e14610237578063e1a136d5146101e0578063e729a4ee146101895763fe229cbe14610158575f80fd5b3461018557602061017d61017661016e36610b36565b919091610e0a565b903361109a565b604051908152f35b5f80fd5b34610185576020366003190112610185576001600160a01b036101aa6109d7565b165f5260066020526101bf60405f205461122a565b604080516001600160801b03939093168352901515602083015290f35b0390f35b34610185576060366003190112610185576101f96109d7565b6102016109ed565b906044359067ffffffffffffffff82116101855760209261023161022c61017d943690600401610a87565b610e0a565b9161109a565b34610185576040366003190112610185576102506109d7565b6102586109ed565b6001600160a01b039182165f908152600160209081526040808320949093168252928352819020549051908152f35b34610185576020366003190112610185576001600160a01b036102a86109d7565b165f52600660205260206001600160801b036102c760405f2054611539565b16604051908152f35b34610185575f366003190112610185576020600754604051908152f35b3461018557604036600319011261018557602061017d61030b6109d7565b602435903361109a565b34610185576040366003190112610185576101bf6103316109d7565b602435906111ee565b3461018557606036600319011261018557602061017d6103586109d7565b6103606109ed565b6044359161109a565b346101855760403660031901126101855761038f6103856109d7565b6024359033610cd9565b602060405160018152f35b34610185576040366003190112610185576103bf6103b66109d7565b60243590611016565b005b34610185575f366003190112610185576040515f6004548060011c906001811680156104bf575b6020831081146104ab578285529081156104875750600114610429575b6101dc8361041581850382610a57565b604051918291602083526020830190610a03565b91905060045f527f8a35acfbc15ff81a39ae7d344fd709f28e8600b4aa8c65c6b64bfe7fe36bd19b915f905b80821061046d57509091508101602001610415610405565b919260018160209254838588010152019101909291610455565b60ff191660208086019190915291151560051b840190910191506104159050610405565b634e487b7160e01b5f52602260045260245ffd5b91607f16916103e8565b34610185576020366003190112610185576001600160a01b036104ea6109d7565b165f525f602052602060405f2054604051908152f35b34610185576020366003190112610185576001600160a01b036105216109d7565b165f5260066020526103bf60405f2054610fa0565b3461018557604036600319011261018557602061017d6105546109d7565b60243590610f23565b34610185576103bf61057161016e36610b36565b90610c40565b34610185576103bf61058b61016e36610b36565b90610b79565b3461018557602061017d6105a761016e36610b36565b90610f23565b34610185576040366003190112610185576103bf6105c96109d7565b60243590610d96565b34610185575f36600319011261018557602060ff60055416604051908152f35b3461018557604036600319011261018557602061063261017d6106136109d7565b602435906001600160801b0361062883611539565b1693849282610c40565b610d96565b34610185576060366003190112610185576106506109d7565b6106586109ed565b6001600160a01b0382165f818152600160209081526040808320338452909152902054909260443592915f198110610696575b5061038f9350610cd9565b8381106106fb5784156106e85733156106d55761038f945f52600160205260405f2060018060a01b0333165f526020528360405f20910390558461068b565b634a1406b160e11b5f525f60045260245ffd5b63e602df0560e01b5f525f60045260245ffd5b8390637dc7a0d960e11b5f523360045260245260445260645ffd5b34610185576040366003190112610185576103bf6107326109d7565b60243590610c40565b34610185575f366003190112610185576020600254604051908152f35b34610185576020366003190112610185576001600160a01b036107796109d7565b165f526006602052602060405f2054604051908152f35b34610185576040366003190112610185576107a96109d7565b6024356001600160801b03811680910361018557816107cb8261080d94611016565b602080926107ef5f6006604051936107e38686610a57565b828552823681376117d5565b604051631888debd60e01b81529586928392906006600485016115a6565b03815f5f805160206118198339815191525af191821561086a575f92610838575b6103bf8383610b79565b90915082813d8311610863575b61084f8183610a57565b81010312610185576103bf9151908361082e565b503d610845565b6040513d5f823e3d90fd5b346101855760403660031901126101855761088e6109d7565b6024359033156106e8576001600160a01b03169081156106d557335f52600160205260405f20825f526020528060405f20556040519081527f8c5be1e5ebec7d5bd14f71427d1e84f3dd0314c0f7b2291e5b200ac8c7c3b92560203392a3602060405160018152f35b34610185575f366003190112610185576040515f6003548060011c906001811680156109a8575b6020831081146104ab57828552908115610487575060011461094a576101dc8361041581850382610a57565b91905060035f527fc2575a0e9e593c00f959f8c92f12db2869c3395a3b0502d05e2516446f71f85b915f905b80821061098e57509091508101602001610415610405565b919260018160209254838588010152019101909291610976565b91607f169161091e565b34610185576040366003190112610185576103bf6109ce6109d7565b60243590610b79565b600435906001600160a01b038216820361018557565b602435906001600160a01b038216820361018557565b805180835260209291819084018484015e5f828201840152601f01601f1916010190565b6080810190811067ffffffffffffffff821117610a4357604052565b634e487b7160e01b5f52604160045260245ffd5b90601f8019910116810190811067ffffffffffffffff821117610a4357604052565b359060ff8216820361018557565b919060808382031261018557604051610a9f81610a27565b809380358252610ab160208201610a79565b6020830152610ac260408201610a79565b604083015260608101359067ffffffffffffffff821161018557019082601f8301121561018557813567ffffffffffffffff8111610a435760405193610b12601f8301601f191660200186610a57565b81855260208285010111610185576020815f92826060960183880137850101520152565b906040600319830112610185576004356001600160a01b038116810361018557916024359067ffffffffffffffff821161018557610b7691600401610a87565b90565b6001600160a01b0381165f81815260066020526040902054610bfe93610bd59190808215610c2b575b610bb39082159384610c0b5761161f565b845f52600660205260405f205560075490918115610c1b575b610c0b5761161f565b600755805f526006602052610bed60405f20546112bc565b5f52600660205260405f20546112f7565b610c0960075461133c565b565b9050610c15611760565b9061161f565b9050610c25611760565b90610bcc565b9150610bb3610c38611760565b929050610ba2565b610c4d610bfe9282611386565b6001600160a01b0382165f818152600660205260409020549091610bd59190808215610cc4575b610c859082159384610ca45761168a565b845f52600660205260405f205560075490918115610cb4575b1561168a575b9050610cae611760565b9061168a565b9050610cbe611760565b90610c9e565b9150610c85610cd1611760565b929050610c74565b6001600160a01b0316908115610d83576001600160a01b0316918215610d7057815f525f60205260405f2054818110610d5757817fddf252ad1be2c89b69c2b068fc378daa952ba7f163c4a11628f55a4df523b3ef92602092855f525f84520360405f2055845f525f825260405f20818154019055604051908152a3565b8263391434e360e21b5f5260045260245260445260645ffd5b63ec442f0560e01b5f525f60045260245ffd5b634b637e8f60e11b5f525f60045260245ffd5b6001600160a01b0316908115610d705760025490808201809211610df65760207fddf252ad1be2c89b69c2b068fc378daa952ba7f163c4a11628f55a4df523b3ef915f9360025584845283825260408420818154019055604051908152a3565b634e487b7160e01b5f52601160045260245ffd5b60ff60408201511660068103610f0c5750602060ff91606080604051610e2f81610a27565b5f81525f858201525f604082015201528051610eb3606085858501511693015160405192610e5c84610a27565b83528483019384528560408401600681526060850192835260405197889687966313fce3b160e11b885260406004890152516044880152511660648601525116608484015251608060a484015260c4830190610a03565b33602483015203815f5f805160206118198339815191525af190811561086a575f91610edd575090565b90506020813d602011610f04575b81610ef860209383610a57565b81010312610185575190565b3d9150610eeb565b6367cf307160e01b5f52600452600660245260445ffd5b90610f2d91611386565b90610f37826112bc565b5f805160206118198339815191523b1561018557604051631974142760e21b8152600481018390523360248201525f81604481835f805160206118198339815191525af1801561086a57610f90575b50610c0982610fa0565b5f610f9a91610a57565b5f610f86565b8015611008575b5f805160206118198339815191523b1561018557604051630828982760e01b815260048101919091523360248201525f8180604481015b0381835f805160206118198339815191525af1801561086a57610ffe5750565b5f610c0991610a57565b50611011611760565b610fa7565b9091906001600160a01b03168015610d8357805f525f60205260405f2054838110611080576020845f94957fddf252ad1be2c89b69c2b068fc378daa952ba7f163c4a11628f55a4df523b3ef938587528684520360408620558060025403600255604051908152a3565b915063391434e360e21b5f5260045260245260445260645ffd5b6001600160a01b03811680156111df576001600160a01b0383169384156111d057610b7693611111610bed92845f5260066020526110e960405f20548283156111c2575b81156111b2576116f5565b907f0000000000000000000000000000000000000000000000000000000000000000916113b8565b95805f52600660205261116660405f205488811561119d575b61113b908a159283610c0b5761161f565b835f52600660205260405f2055855f52600660205260405f205489918115610cb457610ca45761168a565b845f52600660205260405f2055805f52600660205261118860405f20546112bc565b835f526006602052610bed60405f20546112bc565b905061113b6111aa611760565b91905061112a565b90506111bc611760565b906116f5565b506111cb611760565b6110de565b63c9d2135760e01b5f5260045ffd5b63b054d73160e01b5f5260045ffd5b916111f88261122a565b9093909283156112205790611210610c099282610c40565b6001600160801b03851690610d96565b505f935083925050565b906040519163458693c960e01b835260048301526040826024815f805160206118198339815191525afa91821561086a575f905f93611272575b506001600160801b03169190565b9250506040823d6040116112b4575b8161128e60409383610a57565b810103126101855760208251920151918215158303610185576001600160801b03611264565b3d9150611281565b5f805160206118198339815191523b1561018557604051631974142760e21b815260048101919091523060248201525f818060448101610fde565b5f805160206118198339815191523b1561018557604051631974142760e21b815260048101919091526001600160a01b0390911660248201525f818060448101610fde565b5f805160206118198339815191523b156101855760405190631a778f2d60e11b825260048201525f81602481835f805160206118198339815191525af1801561086a57610ffe5750565b6001600160a01b03165f90815260066020526040902054610b7691906110e9908280156111c25781156111b2576116f5565b9190821561149c575b6113d792811561148c575b821561147c576117d5565b60209081611427604051926113ec8385610a57565b5f84525f3681376114396040519485938493631888debd60e01b85526006600486015260046024860152608060448601526084850190611573565b83810360031901606485015290611573565b03815f5f805160206118198339815191525af191821561086a575f9261145e57505090565b90809250813d8311611475575b610ef88183610a57565b503d61146b565b9150611486611760565b916117d5565b9050611496611760565b906113cc565b6114e092506020806040516114b18282610a57565b5f81525f3681376114c35f80806117d5565b604051631888debd60e01b81529687928392905f600485016115a6565b03815f5f805160206118198339815191525af190811561086a575f91611509575b5092506113c1565b905083813d8311611532575b61151f8183610a57565b81010312610185576113d792515f611501565b503d611515565b6040519063f6bc7f3f60e01b825260048201526020816024815f805160206118198339815191525afa90811561086a575f91610edd575090565b90602080835192838152019201905f5b8181106115905750505090565b8251845260209384019390920191600101611583565b916115cd9060ff610b769593168452601a6020850152608060408501526080840190611573565b916060818403910152611573565b9293919060ff168352602081101561160b57610b76936115cd916020850152608060408501526080840190611573565b634e487b7160e01b5f52602160045260245ffd5b906040519161162f606084610a57565b600283526040366020850137611644836117a4565b5261164e826117c5565b5261143960208092604051906116648383610a57565b5f82525f368137604051631888debd60e01b8152938492839260086006600486016115db565b906040519161169a606084610a57565b6002835260403660208501376116af836117a4565b526116b9826117c5565b5261143960208092604051906116cf8383610a57565b5f82525f368137604051631888debd60e01b8152938492839260076006600486016115db565b9060405191611705606084610a57565b60028352604036602085013761171a836117a4565b52611724826117c5565b52611439602080926040519061173a8383610a57565b5f82525f368137604051631888debd60e01b8152938492839260136006600486016115db565b6020611439816040516117738282610a57565b5f81525f3681376117865f6006816117d5565b604051631888debd60e01b81529384928392906006600485016115a6565b8051156117b15760200190565b634e487b7160e01b5f52603260045260245ffd5b8051600110156117b15760400190565b9190604051926117e6608085610a57565b6003845260603660208601376117fb846117a4565b52611805836117c5565b528151600210156117b15760608201529056fe000000000000000000000000ea30c4b8b44078bbf8a6ef5b9f1ec1626c7848d9a264697066735822122032cf9bd4df9596cf478949f971b4579eb96289dc74a92ededf110cd8245379c964736f6c634300081a0033000000000000000000000000000000000000000000000000000000000000006000000000000000000000000000000000000000000000000000000000000000a00000000000000000000000000000000000000000000000000000000000000006000000000000000000000000000000000000000000000000000000000000000f456e63727970746564206d5553444300000000000000000000000000000000000000000000000000000000000000000000000000000000000000000000000006656d555344430000000000000000000000000000000000000000000000000000"
        }
      ],
      "isFixedGasLimit": false
    },
    {
      "hash": "0xd8e4a7d2a8cf9adcb31d4fa737fdcb228ba81a019ed088efd6ca43b2d6cbf158",
      "transactionType": "CALL",
      "contractName": null,
      "contractAddress": "0x2a7bd8f2517ee51bc79c9ee282cd6451412f4080",
      "function": "deposit((address,address,uint24,int24,address),address,uint256)",
      "arguments": [
        "(0x40d8438d2E20F1FF21780Aef6d55422F341ef1a4, 0xf79f5D4387562Ba8536568C36C26Daf272B21071, 3000, 60, 0x2a7bD8f2517ee51bc79C9EE282cD6451412f4080)",
        "0xf79f5D4387562Ba8536568C36C26Daf272B21071",
        "100000000"
      ],
      "transaction": {
        "from": "0x0cd73a4e3d34d5488bc4e547fecedac86305db9d",
        "to": "0x2a7bd8f2517ee51bc79c9ee282cd6451412f4080",
        "gas": "0x25317f",
        "value": "0x0",
        "input": "0xe8d535e200000000000000000000000040d8438d2e20f1ff21780aef6d55422f341ef1a4000000000000000000000000f79f5d4387562ba8536568c36c26daf272b210710000000000000000000000000000000000000000000000000000000000000bb8000000000000000000000000000000000000000000000000000000000000003c0000000000000000000000002a7bd8f2517ee51bc79c9ee282cd6451412f4080000000000000000000000000f79f5d4387562ba8536568c36c26daf272b210710000000000000000000000000000000000000000000000000000000005f5e100",
        "nonce": "0x1c",
        "chainId": "0x66eee"
      },
      "additionalContracts": [
        {
          "transactionType": "CREATE",
          "contractName": "HybridFHERC20",
          "address": "0x74235449bebe547c73d455158ebb3bd8e258ab77",
          "initCode": "0x60a080604052346101ee57611dfa803803809161001c82856103ce565b83398101906060818303126101ee5780516001600160401b0381116101ee57826100479183016103f1565b60208201519092906001600160401b0381116101ee5760409161006b9184016103f1565b91015160ff81168091036101ee5782516001600160401b0381116102df57600354600181811c911680156103c4575b60208210146102c157601f8111610361575b506020601f82116001146102fe57819293945f926102f3575b50508160011b915f199060031b1c1916176003555b81516001600160401b0381116102df57600454600181811c911680156102d5575b60208210146102c157601f811161025e575b50602092601f82116001146101fd57928192935f926101f2575b50508160011b915f199060031b1c1916176004555b610144610446565b60075561014f610446565b8060805273ea30c4b8b44078bbf8a6ef5b9f1ec1626c7848d93b156101ee5760405190631974142760e21b825260048201523060248201525f816044818373ea30c4b8b44078bbf8a6ef5b9f1ec1626c7848d95af180156101e3576101d3575b5060ff19600554161760055560405161186e908161058c8239608051816110ec0152f35b5f6101dd916103ce565b5f6101af565b6040513d5f823e3d90fd5b5f80fd5b015190505f80610127565b601f1982169360045f52805f20915f5b868110610246575083600195961061022e575b505050811b0160045561013c565b01515f1960f88460031b161c191690555f8080610220565b9192602060018192868501518155019401920161020d565b60045f527f8a35acfbc15ff81a39ae7d344fd709f28e8600b4aa8c65c6b64bfe7fe36bd19b601f830160051c810191602084106102b7575b601f0160051c01905b8181106102ac575061010d565b5f815560010161029f565b9091508190610296565b634e487b7160e01b5f52602260045260245ffd5b90607f16906100fb565b634e487b7160e01b5f52604160045260245ffd5b015190505f806100c5565b601f1982169060035f52805f20915f5b81811061034957509583600195969710610331575b505050811b016003556100da565b01515f1960f88460031b161c191690555f8080610323565b9192602060018192868b01518155019401920161030e565b60035f527fc2575a0e9e593c00f959f8c92f12db2869c3395a3b0502d05e2516446f71f85b601f830160051c810191602084106103ba575b601f0160051c01905b8181106103af57506100ac565b5f81556001016103a2565b9091508190610399565b90607f169061009a565b601f909101601f19168101906001600160401b038211908210176102df57604052565b81601f820112156101ee578051906001600160401b0382116102df5760405192610425601f8401601f1916602001856103ce565b828452602083830101116101ee57815f9260208093018386015e8301015290565b602060405161045582826103ce565b5f81525f3681376040519061046b6080836103ce565b6003825260603684840137815115610544575f838301528151600110156105445760066040830152815160021015610544576104dc83915f60608501526104ee6040519485938493631888debd60e01b855260066004860152601a6024860152608060448601526084850190610558565b83810360031901606485015290610558565b03815f73ea30c4b8b44078bbf8a6ef5b9f1ec1626c7848d95af19182156101e3575f9261051a57505090565b90809250813d831161053d575b61053181836103ce565b810103126101ee575190565b503d610527565b634e487b7160e01b5f52603260045260245ffd5b90602080835192838152019201905f5b8181106105755750505090565b825184526020938401939092019160010161056856fe60806040526004361015610011575f80fd5b5f3560e01c8063021ac541146109b257806306fdde03146108f7578063095ea7b3146108755780630df79c12146107905780631311aca11461075857806318160ddd1461073b578063211faa2a1461071657806323b872dd146106375780632c4405a4146105f2578063313ce567146105d257806340c10f19146105ad5780634465266e146105915780635b6c6b3e1461057757806366d4154e1461055d5780636b385161146105365780636e76c4161461050057806370a08231146104c957806395d89b41146103c15780639dc29fac1461039a578063a9059cbb14610369578063af575a001461033a578063c395d81a14610315578063c4224c19146102ed578063ccd8e8af146102d0578063d995159314610287578063dd62ed3e14610237578063e1a136d5146101e0578063e729a4ee146101895763fe229cbe14610158575f80fd5b3461018557602061017d61017661016e36610b36565b919091610e0a565b903361109a565b604051908152f35b5f80fd5b34610185576020366003190112610185576001600160a01b036101aa6109d7565b165f5260066020526101bf60405f205461122a565b604080516001600160801b03939093168352901515602083015290f35b0390f35b34610185576060366003190112610185576101f96109d7565b6102016109ed565b906044359067ffffffffffffffff82116101855760209261023161022c61017d943690600401610a87565b610e0a565b9161109a565b34610185576040366003190112610185576102506109d7565b6102586109ed565b6001600160a01b039182165f908152600160209081526040808320949093168252928352819020549051908152f35b34610185576020366003190112610185576001600160a01b036102a86109d7565b165f52600660205260206001600160801b036102c760405f2054611539565b16604051908152f35b34610185575f366003190112610185576020600754604051908152f35b3461018557604036600319011261018557602061017d61030b6109d7565b602435903361109a565b34610185576040366003190112610185576101bf6103316109d7565b602435906111ee565b3461018557606036600319011261018557602061017d6103586109d7565b6103606109ed565b6044359161109a565b346101855760403660031901126101855761038f6103856109d7565b6024359033610cd9565b602060405160018152f35b34610185576040366003190112610185576103bf6103b66109d7565b60243590611016565b005b34610185575f366003190112610185576040515f6004548060011c906001811680156104bf575b6020831081146104ab578285529081156104875750600114610429575b6101dc8361041581850382610a57565b604051918291602083526020830190610a03565b91905060045f527f8a35acfbc15ff81a39ae7d344fd709f28e8600b4aa8c65c6b64bfe7fe36bd19b915f905b80821061046d57509091508101602001610415610405565b919260018160209254838588010152019101909291610455565b60ff191660208086019190915291151560051b840190910191506104159050610405565b634e487b7160e01b5f52602260045260245ffd5b91607f16916103e8565b34610185576020366003190112610185576001600160a01b036104ea6109d7565b165f525f602052602060405f2054604051908152f35b34610185576020366003190112610185576001600160a01b036105216109d7565b165f5260066020526103bf60405f2054610fa0565b3461018557604036600319011261018557602061017d6105546109d7565b60243590610f23565b34610185576103bf61057161016e36610b36565b90610c40565b34610185576103bf61058b61016e36610b36565b90610b79565b3461018557602061017d6105a761016e36610b36565b90610f23565b34610185576040366003190112610185576103bf6105c96109d7565b60243590610d96565b34610185575f36600319011261018557602060ff60055416604051908152f35b3461018557604036600319011261018557602061063261017d6106136109d7565b602435906001600160801b0361062883611539565b1693849282610c40565b610d96565b34610185576060366003190112610185576106506109d7565b6106586109ed565b6001600160a01b0382165f818152600160209081526040808320338452909152902054909260443592915f198110610696575b5061038f9350610cd9565b8381106106fb5784156106e85733156106d55761038f945f52600160205260405f2060018060a01b0333165f526020528360405f20910390558461068b565b634a1406b160e11b5f525f60045260245ffd5b63e602df0560e01b5f525f60045260245ffd5b8390637dc7a0d960e11b5f523360045260245260445260645ffd5b34610185576040366003190112610185576103bf6107326109d7565b60243590610c40565b34610185575f366003190112610185576020600254604051908152f35b34610185576020366003190112610185576001600160a01b036107796109d7565b165f526006602052602060405f2054604051908152f35b34610185576040366003190112610185576107a96109d7565b6024356001600160801b03811680910361018557816107cb8261080d94611016565b602080926107ef5f6006604051936107e38686610a57565b828552823681376117d5565b604051631888debd60e01b81529586928392906006600485016115a6565b03815f5f805160206118198339815191525af191821561086a575f92610838575b6103bf8383610b79565b90915082813d8311610863575b61084f8183610a57565b81010312610185576103bf9151908361082e565b503d610845565b6040513d5f823e3d90fd5b346101855760403660031901126101855761088e6109d7565b6024359033156106e8576001600160a01b03169081156106d557335f52600160205260405f20825f526020528060405f20556040519081527f8c5be1e5ebec7d5bd14f71427d1e84f3dd0314c0f7b2291e5b200ac8c7c3b92560203392a3602060405160018152f35b34610185575f366003190112610185576040515f6003548060011c906001811680156109a8575b6020831081146104ab57828552908115610487575060011461094a576101dc8361041581850382610a57565b91905060035f527fc2575a0e9e593c00f959f8c92f12db2869c3395a3b0502d05e2516446f71f85b915f905b80821061098e57509091508101602001610415610405565b919260018160209254838588010152019101909291610976565b91607f169161091e565b34610185576040366003190112610185576103bf6109ce6109d7565b60243590610b79565b600435906001600160a01b038216820361018557565b602435906001600160a01b038216820361018557565b805180835260209291819084018484015e5f828201840152601f01601f1916010190565b6080810190811067ffffffffffffffff821117610a4357604052565b634e487b7160e01b5f52604160045260245ffd5b90601f8019910116810190811067ffffffffffffffff821117610a4357604052565b359060ff8216820361018557565b919060808382031261018557604051610a9f81610a27565b809380358252610ab160208201610a79565b6020830152610ac260408201610a79565b604083015260608101359067ffffffffffffffff821161018557019082601f8301121561018557813567ffffffffffffffff8111610a435760405193610b12601f8301601f191660200186610a57565b81855260208285010111610185576020815f92826060960183880137850101520152565b906040600319830112610185576004356001600160a01b038116810361018557916024359067ffffffffffffffff821161018557610b7691600401610a87565b90565b6001600160a01b0381165f81815260066020526040902054610bfe93610bd59190808215610c2b575b610bb39082159384610c0b5761161f565b845f52600660205260405f205560075490918115610c1b575b610c0b5761161f565b600755805f526006602052610bed60405f20546112bc565b5f52600660205260405f20546112f7565b610c0960075461133c565b565b9050610c15611760565b9061161f565b9050610c25611760565b90610bcc565b9150610bb3610c38611760565b929050610ba2565b610c4d610bfe9282611386565b6001600160a01b0382165f818152600660205260409020549091610bd59190808215610cc4575b610c859082159384610ca45761168a565b845f52600660205260405f205560075490918115610cb4575b1561168a575b9050610cae611760565b9061168a565b9050610cbe611760565b90610c9e565b9150610c85610cd1611760565b929050610c74565b6001600160a01b0316908115610d83576001600160a01b0316918215610d7057815f525f60205260405f2054818110610d5757817fddf252ad1be2c89b69c2b068fc378daa952ba7f163c4a11628f55a4df523b3ef92602092855f525f84520360405f2055845f525f825260405f20818154019055604051908152a3565b8263391434e360e21b5f5260045260245260445260645ffd5b63ec442f0560e01b5f525f60045260245ffd5b634b637e8f60e11b5f525f60045260245ffd5b6001600160a01b0316908115610d705760025490808201809211610df65760207fddf252ad1be2c89b69c2b068fc378daa952ba7f163c4a11628f55a4df523b3ef915f9360025584845283825260408420818154019055604051908152a3565b634e487b7160e01b5f52601160045260245ffd5b60ff60408201511660068103610f0c5750602060ff91606080604051610e2f81610a27565b5f81525f858201525f604082015201528051610eb3606085858501511693015160405192610e5c84610a27565b83528483019384528560408401600681526060850192835260405197889687966313fce3b160e11b885260406004890152516044880152511660648601525116608484015251608060a484015260c4830190610a03565b33602483015203815f5f805160206118198339815191525af190811561086a575f91610edd575090565b90506020813d602011610f04575b81610ef860209383610a57565b81010312610185575190565b3d9150610eeb565b6367cf307160e01b5f52600452600660245260445ffd5b90610f2d91611386565b90610f37826112bc565b5f805160206118198339815191523b1561018557604051631974142760e21b8152600481018390523360248201525f81604481835f805160206118198339815191525af1801561086a57610f90575b50610c0982610fa0565b5f610f9a91610a57565b5f610f86565b8015611008575b5f805160206118198339815191523b1561018557604051630828982760e01b815260048101919091523360248201525f8180604481015b0381835f805160206118198339815191525af1801561086a57610ffe5750565b5f610c0991610a57565b50611011611760565b610fa7565b9091906001600160a01b03168015610d8357805f525f60205260405f2054838110611080576020845f94957fddf252ad1be2c89b69c2b068fc378daa952ba7f163c4a11628f55a4df523b3ef938587528684520360408620558060025403600255604051908152a3565b915063391434e360e21b5f5260045260245260445260645ffd5b6001600160a01b03811680156111df576001600160a01b0383169384156111d057610b7693611111610bed92845f5260066020526110e960405f20548283156111c2575b81156111b2576116f5565b907f0000000000000000000000000000000000000000000000000000000000000000916113b8565b95805f52600660205261116660405f205488811561119d575b61113b908a159283610c0b5761161f565b835f52600660205260405f2055855f52600660205260405f205489918115610cb457610ca45761168a565b845f52600660205260405f2055805f52600660205261118860405f20546112bc565b835f526006602052610bed60405f20546112bc565b905061113b6111aa611760565b91905061112a565b90506111bc611760565b906116f5565b506111cb611760565b6110de565b63c9d2135760e01b5f5260045ffd5b63b054d73160e01b5f5260045ffd5b916111f88261122a565b9093909283156112205790611210610c099282610c40565b6001600160801b03851690610d96565b505f935083925050565b906040519163458693c960e01b835260048301526040826024815f805160206118198339815191525afa91821561086a575f905f93611272575b506001600160801b03169190565b9250506040823d6040116112b4575b8161128e60409383610a57565b810103126101855760208251920151918215158303610185576001600160801b03611264565b3d9150611281565b5f805160206118198339815191523b1561018557604051631974142760e21b815260048101919091523060248201525f818060448101610fde565b5f805160206118198339815191523b1561018557604051631974142760e21b815260048101919091526001600160a01b0390911660248201525f818060448101610fde565b5f805160206118198339815191523b156101855760405190631a778f2d60e11b825260048201525f81602481835f805160206118198339815191525af1801561086a57610ffe5750565b6001600160a01b03165f90815260066020526040902054610b7691906110e9908280156111c25781156111b2576116f5565b9190821561149c575b6113d792811561148c575b821561147c576117d5565b60209081611427604051926113ec8385610a57565b5f84525f3681376114396040519485938493631888debd60e01b85526006600486015260046024860152608060448601526084850190611573565b83810360031901606485015290611573565b03815f5f805160206118198339815191525af191821561086a575f9261145e57505090565b90809250813d8311611475575b610ef88183610a57565b503d61146b565b9150611486611760565b916117d5565b9050611496611760565b906113cc565b6114e092506020806040516114b18282610a57565b5f81525f3681376114c35f80806117d5565b604051631888debd60e01b81529687928392905f600485016115a6565b03815f5f805160206118198339815191525af190811561086a575f91611509575b5092506113c1565b905083813d8311611532575b61151f8183610a57565b81010312610185576113d792515f611501565b503d611515565b6040519063f6bc7f3f60e01b825260048201526020816024815f805160206118198339815191525afa90811561086a575f91610edd575090565b90602080835192838152019201905f5b8181106115905750505090565b8251845260209384019390920191600101611583565b916115cd9060ff610b769593168452601a6020850152608060408501526080840190611573565b916060818403910152611573565b9293919060ff168352602081101561160b57610b76936115cd916020850152608060408501526080840190611573565b634e487b7160e01b5f52602160045260245ffd5b906040519161162f606084610a57565b600283526040366020850137611644836117a4565b5261164e826117c5565b5261143960208092604051906116648383610a57565b5f82525f368137604051631888debd60e01b8152938492839260086006600486016115db565b906040519161169a606084610a57565b6002835260403660208501376116af836117a4565b526116b9826117c5565b5261143960208092604051906116cf8383610a57565b5f82525f368137604051631888debd60e01b8152938492839260076006600486016115db565b9060405191611705606084610a57565b60028352604036602085013761171a836117a4565b52611724826117c5565b52611439602080926040519061173a8383610a57565b5f82525f368137604051631888debd60e01b8152938492839260136006600486016115db565b6020611439816040516117738282610a57565b5f81525f3681376117865f6006816117d5565b604051631888debd60e01b81529384928392906006600485016115a6565b8051156117b15760200190565b634e487b7160e01b5f52603260045260245ffd5b8051600110156117b15760400190565b9190604051926117e6608085610a57565b6003845260603660208601376117fb846117a4565b52611805836117c5565b528151600210156117b15760608201529056fe000000000000000000000000ea30c4b8b44078bbf8a6ef5b9f1ec1626c7848d9a264697066735822122032cf9bd4df9596cf478949f971b4579eb96289dc74a92ededf110cd8245379c964736f6c634300081a0033000000000000000000000000000000000000000000000000000000000000006000000000000000000000000000000000000000000000000000000000000000a00000000000000000000000000000000000000000000000000000000000000006000000000000000000000000000000000000000000000000000000000000000f456e63727970746564206d5553445400000000000000000000000000000000000000000000000000000000000000000000000000000000000000000000000006656d555344540000000000000000000000000000000000000000000000000000"
        }
      ],
      "isFixedGasLimit": false
    }
  ],
  "receipts": [
    {
      "status": "0x1",
      "cumulativeGasUsed": "0xcdeb5",
      "logs": [
        {
          "address": "0x40d8438d2e20f1ff21780aef6d55422f341ef1a4",
          "topics": [
            "0x8c5be1e5ebec7d5bd14f71427d1e84f3dd0314c0f7b2291e5b200ac8c7c3b925",
            "0x0000000000000000000000000cd73a4e3d34d5488bc4e547fecedac86305db9d",
            "0x0000000000000000000000002a7bd8f2517ee51bc79c9ee282cd6451412f4080"
          ],
          "data": "0xffffffffffffffffffffffffffffffffffffffffffffffffffffffffffffffff",
          "blockHash": "0x78488e72c52cc5716e6cc8a34664ceee7dda62503a2096e903367840db450a14",
          "blockNumber": "0xc3bb498",
          "blockTimestamp": "0x68f0f65e",
          "transactionHash": "0x44e6a3ab91a4076b6752c9b3928a4598cd36ab2fa15026b0f910ca8806154b89",
          "transactionIndex": "0x4",
          "logIndex": "0x5",
          "removed": false
        }
      ],
      "logsBloom": "0x00000004000010000000000000000000000008200000000000000000000000000000000000000000000000000000000000000000000000000004000000200000000000000000000000000000000000000000000010000000000000000000000000000000000000400000000000000000000000000000000000000000000000000000000000000000000000000000000000000000000000000000000000000000020000000000000000000000008004000000000000000000000000000000000000000000000000000000000000000000000000000000000000000000000000000010000000000000000000000000000000000000000000000000000000000000",
      "type": "0x2",
      "transactionHash": "0x44e6a3ab91a4076b6752c9b3928a4598cd36ab2fa15026b0f910ca8806154b89",
      "transactionIndex": "0x4",
      "blockHash": "0x78488e72c52cc5716e6cc8a34664ceee7dda62503a2096e903367840db450a14",
      "blockNumber": "0xc3bb498",
      "gasUsed": "0xb4a9",
      "effectiveGasPrice": "0x5f5e100",
      "from": "0x0cd73a4e3d34d5488bc4e547fecedac86305db9d",
      "to": "0x40d8438d2e20f1ff21780aef6d55422f341ef1a4",
      "contractAddress": null,
      "gasUsedForL1": "0x0",
      "l1BlockNumber": "0x8fce1f",
      "timeboosted": false
    },
    {
      "status": "0x1",
      "cumulativeGasUsed": "0x64be8",
      "logs": [
        {
          "address": "0xf79f5d4387562ba8536568c36c26daf272b21071",
          "topics": [
            "0x8c5be1e5ebec7d5bd14f71427d1e84f3dd0314c0f7b2291e5b200ac8c7c3b925",
            "0x0000000000000000000000000cd73a4e3d34d5488bc4e547fecedac86305db9d",
            "0x0000000000000000000000002a7bd8f2517ee51bc79c9ee282cd6451412f4080"
          ],
          "data": "0xffffffffffffffffffffffffffffffffffffffffffffffffffffffffffffffff",
          "blockHash": "0xa97995ee081ed687847fe901d570ef564f4494812a2dcd955fb9fa71655c9126",
          "blockNumber": "0xc3bb49b",
          "blockTimestamp": "0x68f0f65f",
          "transactionHash": "0xacb77d00280936355e99b578f656e33224e909f88be86e2828e6a6be6c839b20",
          "transactionIndex": "0x6",
          "logIndex": "0x2",
          "removed": false
        }
      ],
      "logsBloom": "0x00000004000010000000000000000000000008200000010000000000000000000000000000000000000000000000000000100000000000000004000000200000000000000000000000000000000000000000000010000000000000000000000000000000000000000000000000000000000000000000000000000000000000000000000000400000000000000000000000000000000000000000000000000000020000000000000000000000000000000000000000000000000000000000000000000000000000000000000000000000000000000000000000000000000000000010000000000000000000000000000000000000000000000000000000000000",
      "type": "0x2",
      "transactionHash": "0xacb77d00280936355e99b578f656e33224e909f88be86e2828e6a6be6c839b20",
      "transactionIndex": "0x6",
      "blockHash": "0xa97995ee081ed687847fe901d570ef564f4494812a2dcd955fb9fa71655c9126",
      "blockNumber": "0xc3bb49b",
      "gasUsed": "0xb4a9",
      "effectiveGasPrice": "0x5f5e100",
      "from": "0x0cd73a4e3d34d5488bc4e547fecedac86305db9d",
      "to": "0xf79f5d4387562ba8536568c36c26daf272b21071",
      "contractAddress": null,
      "gasUsedForL1": "0x0",
      "l1BlockNumber": "0x8fce1f",
      "timeboosted": false
    },
    {
      "status": "0x1",
      "cumulativeGasUsed": "0x20d992",
      "logs": [
        {
          "address": "0xea30c4b8b44078bbf8a6ef5b9f1ec1626c7848d9",
          "topics": [
            "0xe9de54a3e7ddf0c48cc6e1134185300d5a71acbf2d8c21fcdefa9d9dd9e20ac1"
          ],
          "data": "0x850ebff015260cbbd738bcda5ed13f1513f5ac4d437c9a10ebc0fa7184cb860000000000000000000000000000000000000000000000000000000000000000a0000000000000000000000000000000000000000000000000000000000000000000000000000000000000000000000000000000000000000000000000000000060000000000000000000000000000000000000000000000000000000000000000000000000000000000000000000000000000000000000000000000000000000e7472697669616c456e6372797074000000000000000000000000000000000000",
          "blockHash": "0x79aa4ca6bb9ad9d80627b52a34065f5474081924e899a99c1c59b6b1948391df",
          "blockNumber": "0xc3bb49e",
          "blockTimestamp": "0x68f0f660",
          "transactionHash": "0x286a4c0bb352503ce9d49b1c695062535b63dcaa453ee27e7c601720555dc2f7",
          "transactionIndex": "0x4",
          "logIndex": "0x9",
          "removed": false
        },
        {
          "address": "0xea30c4b8b44078bbf8a6ef5b9f1ec1626c7848d9",
          "topics": [
            "0xe9de54a3e7ddf0c48cc6e1134185300d5a71acbf2d8c21fcdefa9d9dd9e20ac1"
          ],
          "data": "0x850ebff015260cbbd738bcda5ed13f1513f5ac4d437c9a10ebc0fa7184cb860000000000000000000000000000000000000000000000000000000000000000a0000000000000000000000000000000000000000000000000000000000000000000000000000000000000000000000000000000000000000000000000000000060000000000000000000000000000000000000000000000000000000000000000000000000000000000000000000000000000000000000000000000000000000e7472697669616c456e6372797074000000000000000000000000000000000000",
          "blockHash": "0x79aa4ca6bb9ad9d80627b52a34065f5474081924e899a99c1c59b6b1948391df",
          "blockNumber": "0xc3bb49e",
          "blockTimestamp": "0x68f0f660",
          "transactionHash": "0x286a4c0bb352503ce9d49b1c695062535b63dcaa453ee27e7c601720555dc2f7",
          "transactionIndex": "0x4",
          "logIndex": "0xa",
          "removed": false
        },
        {
          "address": "0x2a7bd8f2517ee51bc79c9ee282cd6451412f4080",
          "topics": [
            "0x547b033639423bab9fc7f8ddde94b24adc17836e6809a0b11510201426c47881",
            "0x98a917774cc1e923ac2d656f891d6025e29493d1a34ab73fa6873ed8eb078553",
            "0x00000000000000000000000040d8438d2e20f1ff21780aef6d55422f341ef1a4"
          ],
          "data": "0x00000000000000000000000072975fd7a7ed99691b4408ddc98bbb617155e237",
          "blockHash": "0x79aa4ca6bb9ad9d80627b52a34065f5474081924e899a99c1c59b6b1948391df",
          "blockNumber": "0xc3bb49e",
          "blockTimestamp": "0x68f0f660",
          "transactionHash": "0x286a4c0bb352503ce9d49b1c695062535b63dcaa453ee27e7c601720555dc2f7",
          "transactionIndex": "0x4",
          "logIndex": "0xb",
          "removed": false
        },
        {
          "address": "0x40d8438d2e20f1ff21780aef6d55422f341ef1a4",
          "topics": [
            "0xddf252ad1be2c89b69c2b068fc378daa952ba7f163c4a11628f55a4df523b3ef",
            "0x0000000000000000000000000cd73a4e3d34d5488bc4e547fecedac86305db9d",
            "0x0000000000000000000000002a7bd8f2517ee51bc79c9ee282cd6451412f4080"
          ],
          "data": "0x0000000000000000000000000000000000000000000000000000000005f5e100",
          "blockHash": "0x79aa4ca6bb9ad9d80627b52a34065f5474081924e899a99c1c59b6b1948391df",
          "blockNumber": "0xc3bb49e",
          "blockTimestamp": "0x68f0f660",
          "transactionHash": "0x286a4c0bb352503ce9d49b1c695062535b63dcaa453ee27e7c601720555dc2f7",
          "transactionIndex": "0x4",
          "logIndex": "0xc",
          "removed": false
        },
        {
          "address": "0xea30c4b8b44078bbf8a6ef5b9f1ec1626c7848d9",
          "topics": [
            "0xe9de54a3e7ddf0c48cc6e1134185300d5a71acbf2d8c21fcdefa9d9dd9e20ac1"
          ],
          "data": "0x6cf3fdc443806b6a3fedbdedcdab79884c13d33bc15b9d8358eb332cce78860000000000000000000000000000000000000000000000000000000000000000a00000000000000000000000000000000000000000000000000000000005f5e10000000000000000000000000000000000000000000000000000000000000000060000000000000000000000000000000000000000000000000000000000000000000000000000000000000000000000000000000000000000000000000000000e7472697669616c456e6372797074000000000000000000000000000000000000",
          "blockHash": "0x79aa4ca6bb9ad9d80627b52a34065f5474081924e899a99c1c59b6b1948391df",
          "blockNumber": "0xc3bb49e",
          "blockTimestamp": "0x68f0f660",
          "transactionHash": "0x286a4c0bb352503ce9d49b1c695062535b63dcaa453ee27e7c601720555dc2f7",
          "transactionIndex": "0x4",
          "logIndex": "0xd",
          "removed": false
        },
        {
          "address": "0xea30c4b8b44078bbf8a6ef5b9f1ec1626c7848d9",
          "topics": [
            "0xe9de54a3e7ddf0c48cc6e1134185300d5a71acbf2d8c21fcdefa9d9dd9e20ac1"
          ],
          "data": "0x850ebff015260cbbd738bcda5ed13f1513f5ac4d437c9a10ebc0fa7184cb860000000000000000000000000000000000000000000000000000000000000000a0000000000000000000000000000000000000000000000000000000000000000000000000000000000000000000000000000000000000000000000000000000060000000000000000000000000000000000000000000000000000000000000000000000000000000000000000000000000000000000000000000000000000000e7472697669616c456e6372797074000000000000000000000000000000000000",
          "blockHash": "0x79aa4ca6bb9ad9d80627b52a34065f5474081924e899a99c1c59b6b1948391df",
          "blockNumber": "0xc3bb49e",
          "blockTimestamp": "0x68f0f660",
          "transactionHash": "0x286a4c0bb352503ce9d49b1c695062535b63dcaa453ee27e7c601720555dc2f7",
          "transactionIndex": "0x4",
          "logIndex": "0xe",
          "removed": false
        },
        {
          "address": "0xea30c4b8b44078bbf8a6ef5b9f1ec1626c7848d9",
          "topics": [
            "0xe9de54a3e7ddf0c48cc6e1134185300d5a71acbf2d8c21fcdefa9d9dd9e20ac1"
          ],
          "data": "0xb548d37074fbb098a096d672f62e8a6f3570c5f1323b41c25aead462030b060000000000000000000000000000000000000000000000000000000000000000a0850ebff015260cbbd738bcda5ed13f1513f5ac4d437c9a10ebc0fa7184cb86006cf3fdc443806b6a3fedbdedcdab79884c13d33bc15b9d8358eb332cce788600000000000000000000000000000000000000000000000000000000000000000000000000000000000000000000000000000000000000000000000000000000036164640000000000000000000000000000000000000000000000000000000000",
          "blockHash": "0x79aa4ca6bb9ad9d80627b52a34065f5474081924e899a99c1c59b6b1948391df",
          "blockNumber": "0xc3bb49e",
          "blockTimestamp": "0x68f0f660",
          "transactionHash": "0x286a4c0bb352503ce9d49b1c695062535b63dcaa453ee27e7c601720555dc2f7",
          "transactionIndex": "0x4",
          "logIndex": "0xf",
          "removed": false
        },
        {
          "address": "0xea30c4b8b44078bbf8a6ef5b9f1ec1626c7848d9",
          "topics": [
            "0xe9de54a3e7ddf0c48cc6e1134185300d5a71acbf2d8c21fcdefa9d9dd9e20ac1"
          ],
          "data": "0xb548d37074fbb098a096d672f62e8a6f3570c5f1323b41c25aead462030b060000000000000000000000000000000000000000000000000000000000000000a0850ebff015260cbbd738bcda5ed13f1513f5ac4d437c9a10ebc0fa7184cb86006cf3fdc443806b6a3fedbdedcdab79884c13d33bc15b9d8358eb332cce788600000000000000000000000000000000000000000000000000000000000000000000000000000000000000000000000000000000000000000000000000000000036164640000000000000000000000000000000000000000000000000000000000",
          "blockHash": "0x79aa4ca6bb9ad9d80627b52a34065f5474081924e899a99c1c59b6b1948391df",
          "blockNumber": "0xc3bb49e",
          "blockTimestamp": "0x68f0f660",
          "transactionHash": "0x286a4c0bb352503ce9d49b1c695062535b63dcaa453ee27e7c601720555dc2f7",
          "transactionIndex": "0x4",
          "logIndex": "0x10",
          "removed": false
        },
        {
          "address": "0x2a7bd8f2517ee51bc79c9ee282cd6451412f4080",
          "topics": [
            "0x47d0c68fad27c2ab461e2388074c71fd4c8796ddda9ac7cf75a8e26671383c2b",
            "0x98a917774cc1e923ac2d656f891d6025e29493d1a34ab73fa6873ed8eb078553",
            "0x00000000000000000000000040d8438d2e20f1ff21780aef6d55422f341ef1a4",
            "0x0000000000000000000000000cd73a4e3d34d5488bc4e547fecedac86305db9d"
          ],
          "data": "0x0000000000000000000000000000000000000000000000000000000005f5e10000000000000000000000000072975fd7a7ed99691b4408ddc98bbb617155e237",
          "blockHash": "0x79aa4ca6bb9ad9d80627b52a34065f5474081924e899a99c1c59b6b1948391df",
          "blockNumber": "0xc3bb49e",
          "blockTimestamp": "0x68f0f660",
          "transactionHash": "0x286a4c0bb352503ce9d49b1c695062535b63dcaa453ee27e7c601720555dc2f7",
          "transactionIndex": "0x4",
          "logIndex": "0x11",
          "removed": false
        }
      ],
      "logsBloom": "0x00000004000010000000000000000000080008200000000000000000000210000800000008000000000000000000002000000000008000000004000000000000000004000000000000000048020000000000000010000000000000000000000000000000000000400000000000000000000000080001000000000010000000000000004000000000000000000000000001000000000000000000000000000000000000000000000000000000008004000000000000000000000000000040000000000002000000000000000000000000800000000000000000000000000000000000000000000000000200000000000000000000020000000000020200004000",
      "type": "0x2",
      "transactionHash": "0x286a4c0bb352503ce9d49b1c695062535b63dcaa453ee27e7c601720555dc2f7",
      "transactionIndex": "0x4",
      "blockHash": "0x79aa4ca6bb9ad9d80627b52a34065f5474081924e899a99c1c59b6b1948391df",
      "blockNumber": "0xc3bb49e",
      "gasUsed": "0x1bd688",
      "effectiveGasPrice": "0x5f5e100",
      "from": "0x0cd73a4e3d34d5488bc4e547fecedac86305db9d",
      "to": "0x2a7bd8f2517ee51bc79c9ee282cd6451412f4080",
      "contractAddress": null,
      "gasUsedForL1": "0x0",
      "l1BlockNumber": "0x8fce20",
      "timeboosted": false
    },
    {
      "status": "0x1",
      "cumulativeGasUsed": "0x1fb29d",
      "logs": [
        {
          "address": "0xea30c4b8b44078bbf8a6ef5b9f1ec1626c7848d9",
          "topics": [
            "0xe9de54a3e7ddf0c48cc6e1134185300d5a71acbf2d8c21fcdefa9d9dd9e20ac1"
          ],
          "data": "0x850ebff015260cbbd738bcda5ed13f1513f5ac4d437c9a10ebc0fa7184cb860000000000000000000000000000000000000000000000000000000000000000a0000000000000000000000000000000000000000000000000000000000000000000000000000000000000000000000000000000000000000000000000000000060000000000000000000000000000000000000000000000000000000000000000000000000000000000000000000000000000000000000000000000000000000e7472697669616c456e6372797074000000000000000000000000000000000000",
          "blockHash": "0x21164f01689c1fce6bacbe5db3549e96178142977676ab504cd298f6762281b2",
          "blockNumber": "0xc3bb4a1",
          "blockTimestamp": "0x68f0f660",
          "transactionHash": "0xd8e4a7d2a8cf9adcb31d4fa737fdcb228ba81a019ed088efd6ca43b2d6cbf158",
          "transactionIndex": "0x4",
          "logIndex": "0x9",
          "removed": false
        },
        {
          "address": "0xea30c4b8b44078bbf8a6ef5b9f1ec1626c7848d9",
          "topics": [
            "0xe9de54a3e7ddf0c48cc6e1134185300d5a71acbf2d8c21fcdefa9d9dd9e20ac1"
          ],
          "data": "0x850ebff015260cbbd738bcda5ed13f1513f5ac4d437c9a10ebc0fa7184cb860000000000000000000000000000000000000000000000000000000000000000a0000000000000000000000000000000000000000000000000000000000000000000000000000000000000000000000000000000000000000000000000000000060000000000000000000000000000000000000000000000000000000000000000000000000000000000000000000000000000000000000000000000000000000e7472697669616c456e6372797074000000000000000000000000000000000000",
          "blockHash": "0x21164f01689c1fce6bacbe5db3549e96178142977676ab504cd298f6762281b2",
          "blockNumber": "0xc3bb4a1",
          "blockTimestamp": "0x68f0f660",
          "transactionHash": "0xd8e4a7d2a8cf9adcb31d4fa737fdcb228ba81a019ed088efd6ca43b2d6cbf158",
          "transactionIndex": "0x4",
          "logIndex": "0xa",
          "removed": false
        },
        {
          "address": "0x2a7bd8f2517ee51bc79c9ee282cd6451412f4080",
          "topics": [
            "0x547b033639423bab9fc7f8ddde94b24adc17836e6809a0b11510201426c47881",
            "0x98a917774cc1e923ac2d656f891d6025e29493d1a34ab73fa6873ed8eb078553",
            "0x000000000000000000000000f79f5d4387562ba8536568c36c26daf272b21071"
          ],
          "data": "0x00000000000000000000000074235449bebe547c73d455158ebb3bd8e258ab77",
          "blockHash": "0x21164f01689c1fce6bacbe5db3549e96178142977676ab504cd298f6762281b2",
          "blockNumber": "0xc3bb4a1",
          "blockTimestamp": "0x68f0f660",
          "transactionHash": "0xd8e4a7d2a8cf9adcb31d4fa737fdcb228ba81a019ed088efd6ca43b2d6cbf158",
          "transactionIndex": "0x4",
          "logIndex": "0xb",
          "removed": false
        },
        {
          "address": "0xf79f5d4387562ba8536568c36c26daf272b21071",
          "topics": [
            "0xddf252ad1be2c89b69c2b068fc378daa952ba7f163c4a11628f55a4df523b3ef",
            "0x0000000000000000000000000cd73a4e3d34d5488bc4e547fecedac86305db9d",
            "0x0000000000000000000000002a7bd8f2517ee51bc79c9ee282cd6451412f4080"
          ],
          "data": "0x0000000000000000000000000000000000000000000000000000000005f5e100",
          "blockHash": "0x21164f01689c1fce6bacbe5db3549e96178142977676ab504cd298f6762281b2",
          "blockNumber": "0xc3bb4a1",
          "blockTimestamp": "0x68f0f660",
          "transactionHash": "0xd8e4a7d2a8cf9adcb31d4fa737fdcb228ba81a019ed088efd6ca43b2d6cbf158",
          "transactionIndex": "0x4",
          "logIndex": "0xc",
          "removed": false
        },
        {
          "address": "0xea30c4b8b44078bbf8a6ef5b9f1ec1626c7848d9",
          "topics": [
            "0xe9de54a3e7ddf0c48cc6e1134185300d5a71acbf2d8c21fcdefa9d9dd9e20ac1"
          ],
          "data": "0x6cf3fdc443806b6a3fedbdedcdab79884c13d33bc15b9d8358eb332cce78860000000000000000000000000000000000000000000000000000000000000000a00000000000000000000000000000000000000000000000000000000005f5e10000000000000000000000000000000000000000000000000000000000000000060000000000000000000000000000000000000000000000000000000000000000000000000000000000000000000000000000000000000000000000000000000e7472697669616c456e6372797074000000000000000000000000000000000000",
          "blockHash": "0x21164f01689c1fce6bacbe5db3549e96178142977676ab504cd298f6762281b2",
          "blockNumber": "0xc3bb4a1",
          "blockTimestamp": "0x68f0f660",
          "transactionHash": "0xd8e4a7d2a8cf9adcb31d4fa737fdcb228ba81a019ed088efd6ca43b2d6cbf158",
          "transactionIndex": "0x4",
          "logIndex": "0xd",
          "removed": false
        },
        {
          "address": "0xea30c4b8b44078bbf8a6ef5b9f1ec1626c7848d9",
          "topics": [
            "0xe9de54a3e7ddf0c48cc6e1134185300d5a71acbf2d8c21fcdefa9d9dd9e20ac1"
          ],
          "data": "0x850ebff015260cbbd738bcda5ed13f1513f5ac4d437c9a10ebc0fa7184cb860000000000000000000000000000000000000000000000000000000000000000a0000000000000000000000000000000000000000000000000000000000000000000000000000000000000000000000000000000000000000000000000000000060000000000000000000000000000000000000000000000000000000000000000000000000000000000000000000000000000000000000000000000000000000e7472697669616c456e6372797074000000000000000000000000000000000000",
          "blockHash": "0x21164f01689c1fce6bacbe5db3549e96178142977676ab504cd298f6762281b2",
          "blockNumber": "0xc3bb4a1",
          "blockTimestamp": "0x68f0f660",
          "transactionHash": "0xd8e4a7d2a8cf9adcb31d4fa737fdcb228ba81a019ed088efd6ca43b2d6cbf158",
          "transactionIndex": "0x4",
          "logIndex": "0xe",
          "removed": false
        },
        {
          "address": "0xea30c4b8b44078bbf8a6ef5b9f1ec1626c7848d9",
          "topics": [
            "0xe9de54a3e7ddf0c48cc6e1134185300d5a71acbf2d8c21fcdefa9d9dd9e20ac1"
          ],
          "data": "0xb548d37074fbb098a096d672f62e8a6f3570c5f1323b41c25aead462030b060000000000000000000000000000000000000000000000000000000000000000a0850ebff015260cbbd738bcda5ed13f1513f5ac4d437c9a10ebc0fa7184cb86006cf3fdc443806b6a3fedbdedcdab79884c13d33bc15b9d8358eb332cce788600000000000000000000000000000000000000000000000000000000000000000000000000000000000000000000000000000000000000000000000000000000036164640000000000000000000000000000000000000000000000000000000000",
          "blockHash": "0x21164f01689c1fce6bacbe5db3549e96178142977676ab504cd298f6762281b2",
          "blockNumber": "0xc3bb4a1",
          "blockTimestamp": "0x68f0f660",
          "transactionHash": "0xd8e4a7d2a8cf9adcb31d4fa737fdcb228ba81a019ed088efd6ca43b2d6cbf158",
          "transactionIndex": "0x4",
          "logIndex": "0xf",
          "removed": false
        },
        {
          "address": "0xea30c4b8b44078bbf8a6ef5b9f1ec1626c7848d9",
          "topics": [
            "0xe9de54a3e7ddf0c48cc6e1134185300d5a71acbf2d8c21fcdefa9d9dd9e20ac1"
          ],
          "data": "0xb548d37074fbb098a096d672f62e8a6f3570c5f1323b41c25aead462030b060000000000000000000000000000000000000000000000000000000000000000a0850ebff015260cbbd738bcda5ed13f1513f5ac4d437c9a10ebc0fa7184cb86006cf3fdc443806b6a3fedbdedcdab79884c13d33bc15b9d8358eb332cce788600000000000000000000000000000000000000000000000000000000000000000000000000000000000000000000000000000000000000000000000000000000036164640000000000000000000000000000000000000000000000000000000000",
          "blockHash": "0x21164f01689c1fce6bacbe5db3549e96178142977676ab504cd298f6762281b2",
          "blockNumber": "0xc3bb4a1",
          "blockTimestamp": "0x68f0f660",
          "transactionHash": "0xd8e4a7d2a8cf9adcb31d4fa737fdcb228ba81a019ed088efd6ca43b2d6cbf158",
          "transactionIndex": "0x4",
          "logIndex": "0x10",
          "removed": false
        },
        {
          "address": "0x2a7bd8f2517ee51bc79c9ee282cd6451412f4080",
          "topics": [
            "0x47d0c68fad27c2ab461e2388074c71fd4c8796ddda9ac7cf75a8e26671383c2b",
            "0x98a917774cc1e923ac2d656f891d6025e29493d1a34ab73fa6873ed8eb078553",
            "0x000000000000000000000000f79f5d4387562ba8536568c36c26daf272b21071",
            "0x0000000000000000000000000cd73a4e3d34d5488bc4e547fecedac86305db9d"
          ],
          "data": "0x0000000000000000000000000000000000000000000000000000000005f5e10000000000000000000000000074235449bebe547c73d455158ebb3bd8e258ab77",
          "blockHash": "0x21164f01689c1fce6bacbe5db3549e96178142977676ab504cd298f6762281b2",
          "blockNumber": "0xc3bb4a1",
          "blockTimestamp": "0x68f0f660",
          "transactionHash": "0xd8e4a7d2a8cf9adcb31d4fa737fdcb228ba81a019ed088efd6ca43b2d6cbf158",
          "transactionIndex": "0x4",
          "logIndex": "0x11",
          "removed": false
        }
      ],
      "logsBloom": "0x00000004000010000000000000000000080108200000010000000000000210000000000008000000000000000000002000100000008000000004000000000000000004000000000000000008020000000000000010000400000000000000000000000000000000000000000000000000000000000001000000000010000000000000004000400000000000000000000001000000000000000000000000000000000000000000000000000000000000000000000000000000000000000040000000000002000000000000000000000000800000000000000000000000000000000000000000000000100200000000000000000000020000000000020200004000",
      "type": "0x2",
      "transactionHash": "0xd8e4a7d2a8cf9adcb31d4fa737fdcb228ba81a019ed088efd6ca43b2d6cbf158",
      "transactionIndex": "0x4",
      "blockHash": "0x21164f01689c1fce6bacbe5db3549e96178142977676ab504cd298f6762281b2",
      "blockNumber": "0xc3bb4a1",
      "gasUsed": "0x1aed65",
      "effectiveGasPrice": "0x5f5e100",
      "from": "0x0cd73a4e3d34d5488bc4e547fecedac86305db9d",
      "to": "0x2a7bd8f2517ee51bc79c9ee282cd6451412f4080",
      "contractAddress": null,
      "gasUsedForL1": "0x0",
      "l1BlockNumber": "0x8fce20",
      "timeboosted": false
    }
  ],
  "libraries": [],
  "pending": [],
  "returns": {},
  "timestamp": 1760622224226,
  "chain": 421614,
  "commit": "f9f6294"
}